{
  "abi": [
    {
      "type": "constructor",
      "inputs": [],
      "stateMutability": "nonpayable"
    },
    {
      "type": "function",
      "name": "approve",
      "inputs": [
        {
          "name": "to",
          "type": "address",
          "internalType": "address"
        },
        {
          "name": "tokenId",
          "type": "uint256",
          "internalType": "uint256"
        }
      ],
      "outputs": [],
      "stateMutability": "nonpayable"
    },
    {
      "type": "function",
      "name": "balanceOf",
      "inputs": [
        {
          "name": "owner",
          "type": "address",
          "internalType": "address"
        }
      ],
      "outputs": [
        {
          "name": "",
          "type": "uint256",
          "internalType": "uint256"
        }
      ],
      "stateMutability": "view"
    },
    {
      "type": "function",
      "name": "getApproved",
      "inputs": [
        {
          "name": "tokenId",
          "type": "uint256",
          "internalType": "uint256"
        }
      ],
      "outputs": [
        {
          "name": "",
          "type": "address",
          "internalType": "address"
        }
      ],
      "stateMutability": "view"
    },
    {
      "type": "function",
      "name": "isApprovedForAll",
      "inputs": [
        {
          "name": "owner",
          "type": "address",
          "internalType": "address"
        },
        {
          "name": "operator",
          "type": "address",
          "internalType": "address"
        }
      ],
      "outputs": [
        {
          "name": "",
          "type": "bool",
          "internalType": "bool"
        }
      ],
      "stateMutability": "view"
    },
    {
      "type": "function",
      "name": "isCIDUsed",
      "inputs": [
        {
          "name": "_cid",
          "type": "string",
          "internalType": "string"
        }
      ],
      "outputs": [
        {
          "name": "",
          "type": "bool",
          "internalType": "bool"
        }
      ],
      "stateMutability": "view"
    },
    {
      "type": "function",
      "name": "name",
      "inputs": [],
      "outputs": [
        {
          "name": "",
          "type": "string",
          "internalType": "string"
        }
      ],
      "stateMutability": "view"
    },
    {
      "type": "function",
      "name": "owner",
      "inputs": [],
      "outputs": [
        {
          "name": "",
          "type": "address",
          "internalType": "address"
        }
      ],
      "stateMutability": "view"
    },
    {
      "type": "function",
      "name": "ownerOf",
      "inputs": [
        {
          "name": "tokenId",
          "type": "uint256",
          "internalType": "uint256"
        }
      ],
      "outputs": [
        {
          "name": "",
          "type": "address",
          "internalType": "address"
        }
      ],
      "stateMutability": "view"
    },
    {
      "type": "function",
      "name": "renounceOwnership",
      "inputs": [],
      "outputs": [],
      "stateMutability": "nonpayable"
    },
    {
      "type": "function",
      "name": "safeTransferFrom",
      "inputs": [
        {
          "name": "from",
          "type": "address",
          "internalType": "address"
        },
        {
          "name": "to",
          "type": "address",
          "internalType": "address"
        },
        {
          "name": "tokenId",
          "type": "uint256",
          "internalType": "uint256"
        }
      ],
      "outputs": [],
      "stateMutability": "nonpayable"
    },
    {
      "type": "function",
      "name": "safeTransferFrom",
      "inputs": [
        {
          "name": "from",
          "type": "address",
          "internalType": "address"
        },
        {
          "name": "to",
          "type": "address",
          "internalType": "address"
        },
        {
          "name": "tokenId",
          "type": "uint256",
          "internalType": "uint256"
        },
        {
          "name": "data",
          "type": "bytes",
          "internalType": "bytes"
        }
      ],
      "outputs": [],
      "stateMutability": "nonpayable"
    },
    {
      "type": "function",
      "name": "setApprovalForAll",
      "inputs": [
        {
          "name": "operator",
          "type": "address",
          "internalType": "address"
        },
        {
          "name": "approved",
          "type": "bool",
          "internalType": "bool"
        }
      ],
      "outputs": [],
      "stateMutability": "nonpayable"
    },
    {
      "type": "function",
      "name": "supportsInterface",
      "inputs": [
        {
          "name": "interfaceId",
          "type": "bytes4",
          "internalType": "bytes4"
        }
      ],
      "outputs": [
        {
          "name": "",
          "type": "bool",
          "internalType": "bool"
        }
      ],
      "stateMutability": "view"
    },
    {
      "type": "function",
      "name": "symbol",
      "inputs": [],
      "outputs": [
        {
          "name": "",
          "type": "string",
          "internalType": "string"
        }
      ],
      "stateMutability": "view"
    },
    {
      "type": "function",
      "name": "tokenCounter",
      "inputs": [],
      "outputs": [
        {
          "name": "",
          "type": "uint256",
          "internalType": "uint256"
        }
      ],
      "stateMutability": "view"
    },
    {
      "type": "function",
      "name": "tokenURI",
      "inputs": [
        {
          "name": "tokenId",
          "type": "uint256",
          "internalType": "uint256"
        }
      ],
      "outputs": [
        {
          "name": "",
          "type": "string",
          "internalType": "string"
        }
      ],
      "stateMutability": "view"
    },
    {
      "type": "function",
      "name": "transferFrom",
      "inputs": [
        {
          "name": "from",
          "type": "address",
          "internalType": "address"
        },
        {
          "name": "to",
          "type": "address",
          "internalType": "address"
        },
        {
          "name": "tokenId",
          "type": "uint256",
          "internalType": "uint256"
        }
      ],
      "outputs": [],
      "stateMutability": "nonpayable"
    },
    {
      "type": "function",
      "name": "transferOwnership",
      "inputs": [
        {
          "name": "newOwner",
          "type": "address",
          "internalType": "address"
        }
      ],
      "outputs": [],
      "stateMutability": "nonpayable"
    },
    {
      "type": "function",
      "name": "uploadFile",
      "inputs": [
        {
          "name": "_cid",
          "type": "string",
          "internalType": "string"
        },
        {
          "name": "_fileName",
          "type": "string",
          "internalType": "string"
        }
      ],
      "outputs": [
        {
          "name": "tokenId",
          "type": "uint256",
          "internalType": "uint256"
        }
      ],
      "stateMutability": "nonpayable"
    },
    {
      "type": "event",
      "name": "Approval",
      "inputs": [
        {
          "name": "owner",
          "type": "address",
          "indexed": true,
          "internalType": "address"
        },
        {
          "name": "approved",
          "type": "address",
          "indexed": true,
          "internalType": "address"
        },
        {
          "name": "tokenId",
          "type": "uint256",
          "indexed": true,
          "internalType": "uint256"
        }
      ],
      "anonymous": false
    },
    {
      "type": "event",
      "name": "ApprovalForAll",
      "inputs": [
        {
          "name": "owner",
          "type": "address",
          "indexed": true,
          "internalType": "address"
        },
        {
          "name": "operator",
          "type": "address",
          "indexed": true,
          "internalType": "address"
        },
        {
          "name": "approved",
          "type": "bool",
          "indexed": false,
          "internalType": "bool"
        }
      ],
      "anonymous": false
    },
    {
      "type": "event",
      "name": "FileUploaded",
      "inputs": [
        {
          "name": "tokenId",
          "type": "uint256",
          "indexed": true,
          "internalType": "uint256"
        },
        {
          "name": "uploader",
          "type": "address",
          "indexed": true,
          "internalType": "address"
        },
        {
          "name": "cid",
          "type": "string",
          "indexed": false,
          "internalType": "string"
        },
        {
          "name": "fileName",
          "type": "string",
          "indexed": false,
          "internalType": "string"
        }
      ],
      "anonymous": false
    },
    {
      "type": "event",
      "name": "OwnershipTransferred",
      "inputs": [
        {
          "name": "previousOwner",
          "type": "address",
          "indexed": true,
          "internalType": "address"
        },
        {
          "name": "newOwner",
          "type": "address",
          "indexed": true,
          "internalType": "address"
        }
      ],
      "anonymous": false
    },
    {
      "type": "event",
      "name": "Transfer",
      "inputs": [
        {
          "name": "from",
          "type": "address",
          "indexed": true,
          "internalType": "address"
        },
        {
          "name": "to",
          "type": "address",
          "indexed": true,
          "internalType": "address"
        },
        {
          "name": "tokenId",
          "type": "uint256",
          "indexed": true,
          "internalType": "uint256"
        }
      ],
      "anonymous": false
    },
    {
      "type": "error",
      "name": "ERC721IncorrectOwner",
      "inputs": [
        {
          "name": "sender",
          "type": "address",
          "internalType": "address"
        },
        {
          "name": "tokenId",
          "type": "uint256",
          "internalType": "uint256"
        },
        {
          "name": "owner",
          "type": "address",
          "internalType": "address"
        }
      ]
    },
    {
      "type": "error",
      "name": "ERC721InsufficientApproval",
      "inputs": [
        {
          "name": "operator",
          "type": "address",
          "internalType": "address"
        },
        {
          "name": "tokenId",
          "type": "uint256",
          "internalType": "uint256"
        }
      ]
    },
    {
      "type": "error",
      "name": "ERC721InvalidApprover",
      "inputs": [
        {
          "name": "approver",
          "type": "address",
          "internalType": "address"
        }
      ]
    },
    {
      "type": "error",
      "name": "ERC721InvalidOperator",
      "inputs": [
        {
          "name": "operator",
          "type": "address",
          "internalType": "address"
        }
      ]
    },
    {
      "type": "error",
      "name": "ERC721InvalidOwner",
      "inputs": [
        {
          "name": "owner",
          "type": "address",
          "internalType": "address"
        }
      ]
    },
    {
      "type": "error",
      "name": "ERC721InvalidReceiver",
      "inputs": [
        {
          "name": "receiver",
          "type": "address",
          "internalType": "address"
        }
      ]
    },
    {
      "type": "error",
      "name": "ERC721InvalidSender",
      "inputs": [
        {
          "name": "sender",
          "type": "address",
          "internalType": "address"
        }
      ]
    },
    {
      "type": "error",
      "name": "ERC721NonexistentToken",
      "inputs": [
        {
          "name": "tokenId",
          "type": "uint256",
          "internalType": "uint256"
        }
      ]
    },
    {
      "type": "error",
      "name": "EmptyCID",
      "inputs": []
    },
    {
      "type": "error",
      "name": "EmptyFileName",
      "inputs": []
    },
    {
      "type": "error",
      "name": "FileAlreadyUploaded",
      "inputs": []
    },
    {
      "type": "error",
      "name": "FileDoesNotExist",
      "inputs": []
    },
    {
      "type": "error",
      "name": "OwnableInvalidOwner",
      "inputs": [
        {
          "name": "owner",
          "type": "address",
          "internalType": "address"
        }
      ]
    },
    {
      "type": "error",
      "name": "OwnableUnauthorizedAccount",
      "inputs": [
        {
          "name": "account",
          "type": "address",
          "internalType": "address"
        }
      ]
    }
  ],
  "bytecode": {
    "object": "0x608060405234801561000f575f5ffd5b50336040518060400160405280600e81526020017f46696c6553746f726167654e46540000000000000000000000000000000000008152506040518060400160405280600581526020017f46534e4654000000000000000000000000000000000000000000000000000000815250815f908161008b9190610434565b50806001908161009b9190610434565b5050505f73ffffffffffffffffffffffffffffffffffffffff168173ffffffffffffffffffffffffffffffffffffffff160361010e575f6040517f1e4fbdf70000000000000000000000000000000000000000000000000000000081526004016101059190610542565b60405180910390fd5b61011d8161012360201b60201c565b5061055b565b5f60065f9054906101000a900473ffffffffffffffffffffffffffffffffffffffff1690508160065f6101000a81548173ffffffffffffffffffffffffffffffffffffffff021916908373ffffffffffffffffffffffffffffffffffffffff1602179055508173ffffffffffffffffffffffffffffffffffffffff168173ffffffffffffffffffffffffffffffffffffffff167f8be0079c531659141344cd1fd0a4f28419497f9722a3daafe3b4186f6b6457e060405160405180910390a35050565b5f81519050919050565b7f4e487b71000000000000000000000000000000000000000000000000000000005f52604160045260245ffd5b7f4e487b71000000000000000000000000000000000000000000000000000000005f52602260045260245ffd5b5f600282049050600182168061026157607f821691505b6020821081036102745761027361021d565b5b50919050565b5f819050815f5260205f209050919050565b5f6020601f8301049050919050565b5f82821b905092915050565b5f600883026102d67fffffffffffffffffffffffffffffffffffffffffffffffffffffffffffffffff8261029b565b6102e0868361029b565b95508019841693508086168417925050509392505050565b5f819050919050565b5f819050919050565b5f61032461031f61031a846102f8565b610301565b6102f8565b9050919050565b5f819050919050565b61033d8361030a565b6103516103498261032b565b8484546102a7565b825550505050565b5f5f905090565b610368610359565b610373818484610334565b505050565b5f5b828110156103995761038e5f828401610360565b60018101905061037a565b505050565b601f8211156103ec57828211156103eb576103b88161027a565b6103c18361028c565b6103ca8561028c565b60208610156103d7575f90505b8083016103e682840382610378565b505050505b5b505050565b5f82821c905092915050565b5f61040c5f19846008026103f1565b1980831691505092915050565b5f61042483836103fd565b9150826002028217905092915050565b61043d826101e6565b67ffffffffffffffff811115610456576104556101f0565b5b610460825461024a565b61046b82828561039e565b5f60209050601f83116001811461049c575f841561048a578287015190505b6104948582610419565b8655506104fb565b601f1984166104aa8661027a565b5f5b828110156104d1578489015182556001820191506020850194506020810190506104ac565b868310156104ee57848901516104ea601f8916826103fd565b8355505b6001600288020188555050505b505050505050565b5f73ffffffffffffffffffffffffffffffffffffffff82169050919050565b5f61052c82610503565b9050919050565b61053c81610522565b82525050565b5f6020820190506105555f830184610533565b92915050565b61241b806105685f395ff3fe608060405234801561000f575f5ffd5b506004361061011f575f3560e01c80638da5cb5b116100ab578063c87b56dd1161006f578063c87b56dd14610303578063d082e38114610333578063e4efe32414610351578063e985e9c514610381578063f2fde38b146103b15761011f565b80638da5cb5b1461025f57806395d89b411461027d578063996d50bf1461029b578063a22cb465146102cb578063b88d4fde146102e75761011f565b806323b872dd116100f257806323b872dd146101bd57806342842e0e146101d95780636352211e146101f557806370a0823114610225578063715018a6146102555761011f565b806301ffc9a71461012357806306fdde0314610153578063081812fc14610171578063095ea7b3146101a1575b5f5ffd5b61013d60048036038101906101389190611aff565b6103cd565b60405161014a9190611b44565b60405180910390f35b61015b6104ae565b6040516101689190611bcd565b60405180910390f35b61018b60048036038101906101869190611c20565b61053d565b6040516101989190611c8a565b60405180910390f35b6101bb60048036038101906101b69190611ccd565b610558565b005b6101d760048036038101906101d29190611d0b565b61056e565b005b6101f360048036038101906101ee9190611d0b565b61066d565b005b61020f600480360381019061020a9190611c20565b61068c565b60405161021c9190611c8a565b60405180910390f35b61023f600480360381019061023a9190611d5b565b61069d565b60405161024c9190611d95565b60405180910390f35b61025d610753565b005b610267610766565b6040516102749190611c8a565b60405180910390f35b61028561078e565b6040516102929190611bcd565b60405180910390f35b6102b560048036038101906102b09190611e0f565b61081e565b6040516102c29190611d95565b60405180910390f35b6102e560048036038101906102e09190611eb7565b6109b0565b005b61030160048036038101906102fc919061201d565b6109c6565b005b61031d60048036038101906103189190611c20565b6109eb565b60405161032a9190611bcd565b60405180910390f35b61033b610a51565b6040516103489190611d95565b60405180910390f35b61036b6004803603810190610366919061209d565b610a57565b6040516103789190611b44565b60405180910390f35b61039b600480360381019061039691906120e8565b610a8d565b6040516103a89190611b44565b60405180910390f35b6103cb60048036038101906103c69190611d5b565b610b1b565b005b5f7f80ac58cd000000000000000000000000000000000000000000000000000000007bffffffffffffffffffffffffffffffffffffffffffffffffffffffff1916827bffffffffffffffffffffffffffffffffffffffffffffffffffffffff1916148061049757507f5b5e139f000000000000000000000000000000000000000000000000000000007bffffffffffffffffffffffffffffffffffffffffffffffffffffffff1916827bffffffffffffffffffffffffffffffffffffffffffffffffffffffff1916145b806104a757506104a682610b9f565b5b9050919050565b60605f80546104bc90612153565b80601f01602080910402602001604051908101604052809291908181526020018280546104e890612153565b80156105335780601f1061050a57610100808354040283529160200191610533565b820191905f5260205f20905b81548152906001019060200180831161051657829003601f168201915b5050505050905090565b5f61054782610c08565b5061055182610c8e565b9050919050565b61056a8282610565610cc7565b610cce565b5050565b5f73ffffffffffffffffffffffffffffffffffffffff168273ffffffffffffffffffffffffffffffffffffffff16036105de575f6040517f64a0ae920000000000000000000000000000000000000000000000000000000081526004016105d59190611c8a565b60405180910390fd5b5f6105f183836105ec610cc7565b610ce0565b90508373ffffffffffffffffffffffffffffffffffffffff168173ffffffffffffffffffffffffffffffffffffffff1614610667578382826040517f64283d7b00000000000000000000000000000000000000000000000000000000815260040161065e93929190612183565b60405180910390fd5b50505050565b61068783838360405180602001604052805f8152506109c6565b505050565b5f61069682610c08565b9050919050565b5f5f73ffffffffffffffffffffffffffffffffffffffff168273ffffffffffffffffffffffffffffffffffffffff160361070e575f6040517f89c62b640000000000000000000000000000000000000000000000000000000081526004016107059190611c8a565b60405180910390fd5b60035f8373ffffffffffffffffffffffffffffffffffffffff1673ffffffffffffffffffffffffffffffffffffffff1681526020019081526020015f20549050919050565b61075b610eeb565b6107645f610f72565b565b5f60065f9054906101000a900473ffffffffffffffffffffffffffffffffffffffff16905090565b60606001805461079d90612153565b80601f01602080910402602001604051908101604052809291908181526020018280546107c990612153565b80156108145780601f106107eb57610100808354040283529160200191610814565b820191905f5260205f20905b8154815290600101906020018083116107f757829003601f168201915b5050505050905090565b5f5f858590500361085b576040517f63ee91d000000000000000000000000000000000000000000000000000000000815260040160405180910390fd5b5f8383905003610897576040517ff921971d00000000000000000000000000000000000000000000000000000000815260040160405180910390fd5b600885856040516108a99291906121e6565b90815260200160405180910390205f9054906101000a900460ff16156108fb576040517ffdb7b0dd00000000000000000000000000000000000000000000000000000000815260040160405180910390fd5b600754905061090a3382611035565b60016008868660405161091e9291906121e6565b90815260200160405180910390205f6101000a81548160ff0219169083151502179055503373ffffffffffffffffffffffffffffffffffffffff16817f926d7d5325d38df17ab87f825e0c656a3e3399df22bc8044539385f9a64d938d8787878760405161098f949392919061222a565b60405180910390a360075f8154809291906001019190505550949350505050565b6109c26109bb610cc7565b8383611052565b5050565b6109d184848461056e565b6109e56109dc610cc7565b8585858561122b565b50505050565b60606109f682610c08565b505f610a006113d7565b90505f815111610a1e5760405180602001604052805f815250610a49565b80610a28846113ed565b604051602001610a39929190612293565b6040516020818303038152906040525b915050919050565b60075481565b5f60088383604051610a6a9291906121e6565b90815260200160405180910390205f9054906101000a900460ff16905092915050565b5f60055f8473ffffffffffffffffffffffffffffffffffffffff1673ffffffffffffffffffffffffffffffffffffffff1681526020019081526020015f205f8373ffffffffffffffffffffffffffffffffffffffff1673ffffffffffffffffffffffffffffffffffffffff1681526020019081526020015f205f9054906101000a900460ff16905092915050565b610b23610eeb565b5f73ffffffffffffffffffffffffffffffffffffffff168173ffffffffffffffffffffffffffffffffffffffff1603610b93575f6040517f1e4fbdf7000000000000000000000000000000000000000000000000000000008152600401610b8a9190611c8a565b60405180910390fd5b610b9c81610f72565b50565b5f7f01ffc9a7000000000000000000000000000000000000000000000000000000007bffffffffffffffffffffffffffffffffffffffffffffffffffffffff1916827bffffffffffffffffffffffffffffffffffffffffffffffffffffffff1916149050919050565b5f5f610c13836114b7565b90505f73ffffffffffffffffffffffffffffffffffffffff168173ffffffffffffffffffffffffffffffffffffffff1603610c8557826040517f7e273289000000000000000000000000000000000000000000000000000000008152600401610c7c9190611d95565b60405180910390fd5b80915050919050565b5f60045f8381526020019081526020015f205f9054906101000a900473ffffffffffffffffffffffffffffffffffffffff169050919050565b5f33905090565b610cdb83838360016114f0565b505050565b5f5f610ceb846114b7565b90505f73ffffffffffffffffffffffffffffffffffffffff168373ffffffffffffffffffffffffffffffffffffffff1614610d2c57610d2b8184866116af565b5b5f73ffffffffffffffffffffffffffffffffffffffff168173ffffffffffffffffffffffffffffffffffffffff1614610db757610d6b5f855f5f6114f0565b600160035f8373ffffffffffffffffffffffffffffffffffffffff1673ffffffffffffffffffffffffffffffffffffffff1681526020019081526020015f205f82825403925050819055505b5f73ffffffffffffffffffffffffffffffffffffffff168573ffffffffffffffffffffffffffffffffffffffff1614610e3657600160035f8773ffffffffffffffffffffffffffffffffffffffff1673ffffffffffffffffffffffffffffffffffffffff1681526020019081526020015f205f82825401925050819055505b8460025f8681526020019081526020015f205f6101000a81548173ffffffffffffffffffffffffffffffffffffffff021916908373ffffffffffffffffffffffffffffffffffffffff160217905550838573ffffffffffffffffffffffffffffffffffffffff168273ffffffffffffffffffffffffffffffffffffffff167fddf252ad1be2c89b69c2b068fc378daa952ba7f163c4a11628f55a4df523b3ef60405160405180910390a4809150509392505050565b610ef3610cc7565b73ffffffffffffffffffffffffffffffffffffffff16610f11610766565b73ffffffffffffffffffffffffffffffffffffffff1614610f7057610f34610cc7565b6040517f118cdaa7000000000000000000000000000000000000000000000000000000008152600401610f679190611c8a565b60405180910390fd5b565b5f60065f9054906101000a900473ffffffffffffffffffffffffffffffffffffffff1690508160065f6101000a81548173ffffffffffffffffffffffffffffffffffffffff021916908373ffffffffffffffffffffffffffffffffffffffff1602179055508173ffffffffffffffffffffffffffffffffffffffff168173ffffffffffffffffffffffffffffffffffffffff167f8be0079c531659141344cd1fd0a4f28419497f9722a3daafe3b4186f6b6457e060405160405180910390a35050565b61104e828260405180602001604052805f815250611772565b5050565b5f73ffffffffffffffffffffffffffffffffffffffff168373ffffffffffffffffffffffffffffffffffffffff16036110c2575f6040517fa9fbf51f0000000000000000000000000000000000000000000000000000000081526004016110b99190611c8a565b60405180910390fd5b5f73ffffffffffffffffffffffffffffffffffffffff168273ffffffffffffffffffffffffffffffffffffffff160361113257816040517f5b08ba180000000000000000000000000000000000000000000000000000000081526004016111299190611c8a565b60405180910390fd5b8060055f8573ffffffffffffffffffffffffffffffffffffffff1673ffffffffffffffffffffffffffffffffffffffff1681526020019081526020015f205f8473ffffffffffffffffffffffffffffffffffffffff1673ffffffffffffffffffffffffffffffffffffffff1681526020019081526020015f205f6101000a81548160ff0219169083151502179055508173ffffffffffffffffffffffffffffffffffffffff168373ffffffffffffffffffffffffffffffffffffffff167f17307eab39ab6107e8899845ad3d59bd9653f200f220920489ca2b5937696c318360405161121e9190611b44565b60405180910390a3505050565b5f8373ffffffffffffffffffffffffffffffffffffffff163b11156113d0578273ffffffffffffffffffffffffffffffffffffffff1663150b7a02868685856040518563ffffffff1660e01b81526004016112899493929190612308565b6020604051808303815f875af19250505080156112c457506040513d601f19601f820116820180604052508101906112c19190612366565b60015b611345573d805f81146112f2576040519150601f19603f3d011682016040523d82523d5f602084013e6112f7565b606091505b505f81510361133d57836040517f64a0ae920000000000000000000000000000000000000000000000000000000081526004016113349190611c8a565b60405180910390fd5b805160208201fd5b63150b7a0260e01b7bffffffffffffffffffffffffffffffffffffffffffffffffffffffff1916817bffffffffffffffffffffffffffffffffffffffffffffffffffffffff1916146113ce57836040517f64a0ae920000000000000000000000000000000000000000000000000000000081526004016113c59190611c8a565b60405180910390fd5b505b5050505050565b606060405180602001604052805f815250905090565b60605f60016113fb84611795565b0190505f8167ffffffffffffffff81111561141957611418611ef9565b5b6040519080825280601f01601f19166020018201604052801561144b5781602001600182028036833780820191505090505b5090505f82602083010190505b6001156114ac578080600190039150507f3031323334353637383961626364656600000000000000000000000000000000600a86061a8153600a85816114a1576114a0612391565b5b0494505f8503611458575b819350505050919050565b5f60025f8381526020019081526020015f205f9054906101000a900473ffffffffffffffffffffffffffffffffffffffff169050919050565b808061152857505f73ffffffffffffffffffffffffffffffffffffffff168273ffffffffffffffffffffffffffffffffffffffff1614155b1561165a575f61153784610c08565b90505f73ffffffffffffffffffffffffffffffffffffffff168373ffffffffffffffffffffffffffffffffffffffff16141580156115a157508273ffffffffffffffffffffffffffffffffffffffff168173ffffffffffffffffffffffffffffffffffffffff1614155b80156115b457506115b28184610a8d565b155b156115f657826040517fa9fbf51f0000000000000000000000000000000000000000000000000000000081526004016115ed9190611c8a565b60405180910390fd5b811561165857838573ffffffffffffffffffffffffffffffffffffffff168273ffffffffffffffffffffffffffffffffffffffff167f8c5be1e5ebec7d5bd14f71427d1e84f3dd0314c0f7b2291e5b200ac8c7c3b92560405160405180910390a45b505b8360045f8581526020019081526020015f205f6101000a81548173ffffffffffffffffffffffffffffffffffffffff021916908373ffffffffffffffffffffffffffffffffffffffff16021790555050505050565b6116ba8383836118e6565b61176d575f73ffffffffffffffffffffffffffffffffffffffff168373ffffffffffffffffffffffffffffffffffffffff160361172e57806040517f7e2732890000000000000000000000000000000000000000000000000000000081526004016117259190611d95565b60405180910390fd5b81816040517f177e802f0000000000000000000000000000000000000000000000000000000081526004016117649291906123be565b60405180910390fd5b505050565b61177c83836119a6565b611790611787610cc7565b5f85858561122b565b505050565b5f5f5f90507a184f03e93ff9f4daa797ed6e38ed64bf6a1f01000000000000000083106117f1577a184f03e93ff9f4daa797ed6e38ed64bf6a1f01000000000000000083816117e7576117e6612391565b5b0492506040810190505b6d04ee2d6d415b85acef8100000000831061182e576d04ee2d6d415b85acef8100000000838161182457611823612391565b5b0492506020810190505b662386f26fc10000831061185d57662386f26fc10000838161185357611852612391565b5b0492506010810190505b6305f5e1008310611886576305f5e100838161187c5761187b612391565b5b0492506008810190505b61271083106118ab5761271083816118a1576118a0612391565b5b0492506004810190505b606483106118ce57606483816118c4576118c3612391565b5b0492506002810190505b600a83106118dd576001810190505b80915050919050565b5f5f73ffffffffffffffffffffffffffffffffffffffff168373ffffffffffffffffffffffffffffffffffffffff161415801561199d57508273ffffffffffffffffffffffffffffffffffffffff168473ffffffffffffffffffffffffffffffffffffffff16148061195e575061195d8484610a8d565b5b8061199c57508273ffffffffffffffffffffffffffffffffffffffff1661198483610c8e565b73ffffffffffffffffffffffffffffffffffffffff16145b5b90509392505050565b5f73ffffffffffffffffffffffffffffffffffffffff168273ffffffffffffffffffffffffffffffffffffffff1603611a16575f6040517f64a0ae92000000000000000000000000000000000000000000000000000000008152600401611a0d9190611c8a565b60405180910390fd5b5f611a2283835f610ce0565b90505f73ffffffffffffffffffffffffffffffffffffffff168173ffffffffffffffffffffffffffffffffffffffff1614611a94575f6040517f73c6ac6e000000000000000000000000000000000000000000000000000000008152600401611a8b9190611c8a565b60405180910390fd5b505050565b5f604051905090565b5f5ffd5b5f5ffd5b5f7fffffffff0000000000000000000000000000000000000000000000000000000082169050919050565b611ade81611aaa565b8114611ae8575f5ffd5b50565b5f81359050611af981611ad5565b92915050565b5f60208284031215611b1457611b13611aa2565b5b5f611b2184828501611aeb565b91505092915050565b5f8115159050919050565b611b3e81611b2a565b82525050565b5f602082019050611b575f830184611b35565b92915050565b5f81519050919050565b5f82825260208201905092915050565b8281835e5f83830152505050565b5f601f19601f8301169050919050565b5f611b9f82611b5d565b611ba98185611b67565b9350611bb9818560208601611b77565b611bc281611b85565b840191505092915050565b5f6020820190508181035f830152611be58184611b95565b905092915050565b5f819050919050565b611bff81611bed565b8114611c09575f5ffd5b50565b5f81359050611c1a81611bf6565b92915050565b5f60208284031215611c3557611c34611aa2565b5b5f611c4284828501611c0c565b91505092915050565b5f73ffffffffffffffffffffffffffffffffffffffff82169050919050565b5f611c7482611c4b565b9050919050565b611c8481611c6a565b82525050565b5f602082019050611c9d5f830184611c7b565b92915050565b611cac81611c6a565b8114611cb6575f5ffd5b50565b5f81359050611cc781611ca3565b92915050565b5f5f60408385031215611ce357611ce2611aa2565b5b5f611cf085828601611cb9565b9250506020611d0185828601611c0c565b9150509250929050565b5f5f5f60608486031215611d2257611d21611aa2565b5b5f611d2f86828701611cb9565b9350506020611d4086828701611cb9565b9250506040611d5186828701611c0c565b9150509250925092565b5f60208284031215611d7057611d6f611aa2565b5b5f611d7d84828501611cb9565b91505092915050565b611d8f81611bed565b82525050565b5f602082019050611da85f830184611d86565b92915050565b5f5ffd5b5f5ffd5b5f5ffd5b5f5f83601f840112611dcf57611dce611dae565b5b8235905067ffffffffffffffff811115611dec57611deb611db2565b5b602083019150836001820283011115611e0857611e07611db6565b5b9250929050565b5f5f5f5f60408587031215611e2757611e26611aa2565b5b5f85013567ffffffffffffffff811115611e4457611e43611aa6565b5b611e5087828801611dba565b9450945050602085013567ffffffffffffffff811115611e7357611e72611aa6565b5b611e7f87828801611dba565b925092505092959194509250565b611e9681611b2a565b8114611ea0575f5ffd5b50565b5f81359050611eb181611e8d565b92915050565b5f5f60408385031215611ecd57611ecc611aa2565b5b5f611eda85828601611cb9565b9250506020611eeb85828601611ea3565b9150509250929050565b5f5ffd5b7f4e487b71000000000000000000000000000000000000000000000000000000005f52604160045260245ffd5b611f2f82611b85565b810181811067ffffffffffffffff82111715611f4e57611f4d611ef9565b5b80604052505050565b5f611f60611a99565b9050611f6c8282611f26565b919050565b5f67ffffffffffffffff821115611f8b57611f8a611ef9565b5b611f9482611b85565b9050602081019050919050565b828183375f83830152505050565b5f611fc1611fbc84611f71565b611f57565b905082815260208101848484011115611fdd57611fdc611ef5565b5b611fe8848285611fa1565b509392505050565b5f82601f83011261200457612003611dae565b5b8135612014848260208601611faf565b91505092915050565b5f5f5f5f6080858703121561203557612034611aa2565b5b5f61204287828801611cb9565b945050602061205387828801611cb9565b935050604061206487828801611c0c565b925050606085013567ffffffffffffffff81111561208557612084611aa6565b5b61209187828801611ff0565b91505092959194509250565b5f5f602083850312156120b3576120b2611aa2565b5b5f83013567ffffffffffffffff8111156120d0576120cf611aa6565b5b6120dc85828601611dba565b92509250509250929050565b5f5f604083850312156120fe576120fd611aa2565b5b5f61210b85828601611cb9565b925050602061211c85828601611cb9565b9150509250929050565b7f4e487b71000000000000000000000000000000000000000000000000000000005f52602260045260245ffd5b5f600282049050600182168061216a57607f821691505b60208210810361217d5761217c612126565b5b50919050565b5f6060820190506121965f830186611c7b565b6121a36020830185611d86565b6121b06040830184611c7b565b949350505050565b5f81905092915050565b5f6121cd83856121b8565b93506121da838584611fa1565b82840190509392505050565b5f6121f28284866121c2565b91508190509392505050565b5f6122098385611b67565b9350612216838584611fa1565b61221f83611b85565b840190509392505050565b5f6040820190508181035f8301526122438186886121fe565b905081810360208301526122588184866121fe565b905095945050505050565b5f61226d82611b5d565b61227781856121b8565b9350612287818560208601611b77565b80840191505092915050565b5f61229e8285612263565b91506122aa8284612263565b91508190509392505050565b5f81519050919050565b5f82825260208201905092915050565b5f6122da826122b6565b6122e481856122c0565b93506122f4818560208601611b77565b6122fd81611b85565b840191505092915050565b5f60808201905061231b5f830187611c7b565b6123286020830186611c7b565b6123356040830185611d86565b818103606083015261234781846122d0565b905095945050505050565b5f8151905061236081611ad5565b92915050565b5f6020828403121561237b5761237a611aa2565b5b5f61238884828501612352565b91505092915050565b7f4e487b71000000000000000000000000000000000000000000000000000000005f52601260045260245ffd5b5f6040820190506123d15f830185611c7b565b6123de6020830184611d86565b939250505056fea26469706673582212206348fdb617def874377814134a588a9582018158f6f4ba1f05cd939687fa324364736f6c63430008230033",
    "linkReferences": {}
  },
  "methodIdentifiers": {
    "approve(address,uint256)": "095ea7b3",
    "balanceOf(address)": "70a08231",
    "getApproved(uint256)": "081812fc",
    "isApprovedForAll(address,address)": "e985e9c5",
    "isCIDUsed(string)": "e4efe324",
    "name()": "06fdde03",
    "owner()": "8da5cb5b",
    "ownerOf(uint256)": "6352211e",
    "renounceOwnership()": "715018a6",
    "safeTransferFrom(address,address,uint256)": "42842e0e",
    "safeTransferFrom(address,address,uint256,bytes)": "b88d4fde",
    "setApprovalForAll(address,bool)": "a22cb465",
    "supportsInterface(bytes4)": "01ffc9a7",
    "symbol()": "95d89b41",
    "tokenCounter()": "d082e381",
    "tokenURI(uint256)": "c87b56dd",
    "transferFrom(address,address,uint256)": "23b872dd",
    "transferOwnership(address)": "f2fde38b",
    "uploadFile(string,string)": "996d50bf"
  },
  "id": 33
}